:100000000C94E0000C9408010C9408010C94080175
:100010000C9408010C9408010C9408010C9408013C
:100020000C9408010C9408010C9408010C9408012C
:100030000C9408010C9408010C9408010C9408011C
:100040000C94D8040C9408010C94A6040C9480041D
:100050000C9408010C9408010C9408010C940801FC
:100060000C9408010C94080100407A10F35A00A087
:10007000724E18090010A5D4E80000E87648170071
:1000800000E40B54020000CA9A3B000000E1F505B1
:10009000000080969800000040420F000000A086FB
:1000A00001000000102700000000E803000000002D
:1000B0006400000000000A000000000001000000D1
:1000C00000002C76D888DC674F0823DFC1DFAE59EB
:1000D000E1B1B796E5E3E453C63AE651997696E87E
:1000E000E6C28426EB898C9B62ED407C6FFCEFBC02
:1000F0009C9F40F2BAA56FA5F490055A2AF75C932D
:100100006B6CF9676DC11BFCE0E40D47FEF520E662
:10011000B500D0ED902E0300943577050080841E45
:10012000080000204E0A000000C80C333333330FA0
:10013000986E12831141EF8D2114893BE65516CF3D
:10014000FEE6DB18D1844B381BF77C1D901DA4BB49
:10015000E424203284725E228100C9F124ECA1E5FE
:100160003D2700000000240027002A0000000000B6
:10017000250028002B000000000023002600290095
:10018000040404040404040402020202020203033D
:100190000303030301020408102040800102040845
:1001A00010200102040810200000000800020100D5
:1001B0000003040700000000000000002205C4083E
:1001C00011241FBECFEFD8E0DEBFCDBF22E0A8E3F1
:1001D000B1E001C01D92A633B207E1F711E0A0E043
:1001E000B1E0E2E4FEE102C005900D92A833B10750
:1001F000D9F710E0CFEDD0E004C02197FE010E94B6
:10020000020DCE3DD107C9F70E9472050C94140F60
:100210000C940000CF92DF92EF92FF920F931F9306
:10022000CF93DF936C017A018B01C0E0D0E0CE1553
:10023000DF0589F0D8016D918D01D601ED91FC911A
:100240000190F081E02DC6010995892B11F47E0102
:1002500002C02196ECCFC701DF91CF911F910F9182
:10026000FF90EF90DF90CF900895CF93DF93FC0144
:10027000448155816081718181E791E00E940A018A
:10028000EC0142E050E068E171E081E791E00E941A
:100290000A018C0F9D1FDF91CF910895089580E092
:1002A00090E00895FC01538D448D252F30E0842F7C
:1002B00090E0821B930B541710F0CF96089501978E
:1002C0000895FC01918D828D981761F0828DDF0178
:1002D000A80FB11D5D968C91928D9F5F9F73928F39
:1002E00090E008958FEF9FEF0895FC01918D828D2E
:1002F000981731F0828DE80FF11D858D90E00895FB
:100300008FEF9FEF0895FC01918D228D892F90E052
:10031000805C9F4F821B91098F739927089581E715
:1003200091E00E94830121E0892B09F420E0822FD3
:100330000895FC01848DDF01A80FB11DA35ABF4FA2
:100340002C91848D90E001968F739927848FA689D4
:10035000B7892C93A089B1898C9180648C93938DFB
:10036000848D981306C00288F389E02D80818F7DEB
:1003700080830895EF92FF920F931F93CF93DF93A3
:10038000EC0181E0888F9B8D8C8D981305C0E889E6
:10039000F989808185FD24C0F62E0B8D10E00F5F5A
:1003A0001F4F0F731127E02E8C8DE8120CC00FB673
:1003B00007FCFACFE889F989808185FFF5CFCE0166
:1003C0000E949901F1CF8B8DFE01E80FF11DE35AD8
:1003D000FF4FF0820B8FEA89FB898081806207C022
:1003E000EE89FF896083E889F98980818064808350
:1003F00081E090E0DF91CF911F910F91FF90EF90FE
:100400000895CF93DF93EC01888D8823C9F0EA89A2
:10041000FB89808185FD05C0A889B9898C9186FDFD
:100420000FC00FB607FCF5CF808185FFF2CFA889FA
:10043000B9898C9185FFEDCFCE010E949901E7CF5C
:10044000DF91CF91089580E090E0892B29F00E9400
:100450008F0181110C9400000895833081F028F4FD
:10046000813099F08230A1F008958730A9F088306A
:10047000B9F08430D1F4809180008F7D03C08091E9
:1004800080008F7780938000089584B58F7702C0B5
:1004900084B58F7D84BD08958091B0008F7703C0AF
:1004A0008091B0008F7D8093B0000895CF93DF934B
:1004B000282F30E0F901E855FE4F8491F901EC5600
:1004C000FE4FD491F901E058FE4FC491CC2391F036
:1004D00081110E942D02EC2FF0E0EE0FFF1FEA5871
:1004E000FE4FA591B491EC91ED2381E090E021F4D1
:1004F00080E002C080E090E0DF91CF9108951F93EB
:10050000CF93DF93282F30E0F901E855FE4F849117
:10051000F901EC56FE4FD491F901E058FE4FC49119
:10052000CC23C9F0162F81110E942D02EC2FF0E090
:10053000EE0FFF1FE459FE4FA591B4918FB7F894C9
:10054000111105C09C91ED2FE095E92302C0EC91BB
:10055000ED2BEC938FBFDF91CF911F910895CF9337
:10056000DF9390E0FC01EC56FE4F2491FC01E05833
:10057000FE4F8491882361F190E0880F991FFC0160
:10058000EE59FE4FC591D491FC01E459FE4FA5915F
:10059000B491611109C09FB7F89488812095822396
:1005A0008883EC912E230BC0623061F49FB7F894DE
:1005B0003881822F809583238883EC912E2B2C9376
:1005C0009FBF06C08FB7F894E8812E2B28838FBF7A
:1005D000DF91CF9108953FB7F894809141019091B8
:1005E0004201A0914301B091440126B5A89B05C0EA
:1005F0002F3F19F00196A11DB11D3FBFBA2FA92FA2
:10060000982F8827820F911DA11DB11DBC01CD011E
:1006100042E0660F771F881F991F4A95D1F708950A
:100620008F929F92AF92BF92CF92DF92EF92FF9202
:100630002FB7F894C0904501D0904601E090470153
:10064000F09048012FBFC0923C01D0923D01E09252
:100650003E01F0923F0128E13CEF4FEF5FEF0E9437
:10066000E30C49015A01C701B60128EE33E040E02E
:1006700050E00E94C10CC501B401620F731F841FBA
:10068000951F0E94590B20E030E040E05FE30E949C
:100690001F0C0E948B0C609338017093390180937A
:1006A0003A0190933B01FF90EF90DF90CF90BF9085
:1006B000AF909F908F9008950E94FF0E0F931F930D
:1006C000CF93DF93EC0188819981009729F02A81EB
:1006D0003B812617370788F48B016F5F7F4F0E949D
:1006E000350E009761F0998388831B830A832C81E0
:1006F0003D81232B11F4FC01108281E001C080E0D8
:10070000DF91CF911F910F910895CF93DF93EC016B
:1007100088819981009711F00E949D0D198218829D
:100720001D821C821B821A82DF91CF9108950F9344
:100730001F93CF93DF93EC010C811D810E5F1F4F40
:10074000B8010E945E03882369F0288139818C8179
:100750009D816BE171E0820F931F0E940D0F1D833D
:100760000C8303C0CE010E948503CE01DF91CF919F
:100770001F910F910895EF92FF920F931F93CF93C4
:10078000DF93EC01FB0184819581E080F1800C8195
:100790001D81E114F104B1F00097B9F0080F191FA1
:1007A000B801CE010E945E03882361F0288139815F
:1007B0008C819D81B701820F931F0E940D0F1D83B5
:1007C0000C8303C0CE010E948503CE01DF91CF913F
:1007D0001F910F91FF90EF900895EF92FF920F936A
:1007E0001F93CF93DF93EC017B018A01BA010E9432
:1007F0005E03811104C0CE010E94850307C01D83E2
:100800000C83B701888199810E940D0FCE01DF9181
:10081000CF911F910F91FF90EF900895FB01DC01A4
:1008200011961C921E9213961C921E921297159668
:100830001C921E9214978617970749F06081718168
:100840006115710521F0448155810C94ED030895E3
:10085000FC011182108213821282158214826115AA
:10086000710551F0FB0101900020E9F73197AF01CC
:10087000461B570B0C94ED030895FC018081918178
:100880000C949D0DEF92FF920F931F93CF93DF93E4
:10089000CDB7DEB7A1970FB6F894DEBF0FBECDBFC0
:1008A0007C01CB01BA01F7011182108213821282FE
:1008B0001582148242E0420F8E010F5F1F4F0E948B
:1008C000D308009769F0FC0101900020E9F7319707
:1008D000AF01481B590BBC01C7010E94ED0303C0C7
:1008E000C7010E948503A1960FB6F894DEBF0FBE24
:1008F000CDBFDF91CF911F910F91FF90EF900895A1
:100900001F920F920FB60F9211242F933F934F9384
:100910005F936F937F938F939F93AF93BF93EF9367
:10092000FF9381E791E00E949901FF91EF91BF91C0
:10093000AF919F918F917F916F915F914F913F9177
:100940002F910F900FBE0F901F9018951F920F922E
:100950000FB60F9211242F938F939F93EF93FF93D2
:10096000E0918101F09182018081E0918701F09115
:10097000880182FD12C0908180918A018F5F8F7300
:1009800020918B01821751F0E0918A01F0E0EF583D
:10099000FE4F958F80938A0101C08081FF91EF9176
:1009A0009F918F912F910F900FBE0F901F901895D0
:1009B0001F920F920FB60F9211242F933F938F9394
:1009C0009F93AF93BF938091450190914601A09171
:1009D0004701B09148013091400123E0230F2D37AA
:1009E00020F40196A11DB11D05C026E8230F029633
:1009F000A11DB11D209340018093450190934601B4
:100A0000A0934701B0934801809141019091420128
:100A1000A0914301B09144010196A11DB11D8093A5
:100A2000410190934201A0934301B0934401BF91CF
:100A3000AF919F918F913F912F910F900FBE0F908B
:100A40001F901895E1E7F1E01382128288EE93E09F
:100A5000A0E0B0E084839583A683B7838AE091E029
:100A60009183808385EC90E09587848784EC90E087
:100A70009787868780EC90E0918B808B81EC90E06B
:100A8000938B828B82EC90E0958B848B86EC90E04C
:100A9000978B868B118E128E138E148E6EE171E001
:100AA0008EE092E00E9428046EE171E084E192E021
:100AB0000E94280461E271E08AE192E00E94280429
:100AC00065E271E080E292E00E9428046AE271E04F
:100AD00086E292E00E94280460E371E08CE292E0FA
:100AE0000C942804CF93DF93CDB7DEB762970FB68F
:100AF000F894DEBF0FBECDBF789484B5826084BD0C
:100B000084B5816084BD85B5826085BD85B5816011
:100B100085BD80916E00816080936E00109281008F
:100B2000809181008260809381008091810081604A
:100B3000809381008091800081608093800080910B
:100B4000B10084608093B1008091B0008160809397
:100B5000B00080917A00846080937A0080917A005E
:100B6000826080937A0080917A00816080937A001D
:100B700080917A00806880937A001092C100E091A1
:100B80008101F091820182E08083E0917D01F0910A
:100B90007E011082E0917F01F09180018FEC8083D3
:100BA00010928901E0918501F091860186E08083B1
:100BB000E0918301F0918401808180618083E091E4
:100BC0008301F0918401808188608083E0918301BA
:100BD000F0918401808180688083E0918301F091AD
:100BE000840180818F7D808361E082E00E94AF027A
:100BF00061E083E00E94AF0261E084E00E94AF0206
:100C000061E085E00E94AF0261E08AE00E94AF02ED
:100C100060E086E00E94AF0260E087E00E94AF02E1
:100C200060E088E00E94AF0260E089E00E94AF02CD
:100C300060E08EE00E94AF0260E081E10E94AF02BE
:100C400060E08FE00E94AF0260E080E10E94AF02AE
:100C500060E082E00E947F0260E083E00E947F0209
:100C600060E084E00E947F0260E085E00E947F02F5
:100C700075E0272E312CE4E0AE2EB12CF3E08F2E60
:100C8000912C412C512C612C712C62E0C62ED12C60
:100C90008EE00E9456020197E9F52FB7F8948091F3
:100CA000450190914601A0914701B09148012FBFA5
:100CB00080934B0190934C01A0934D01B0934E0152
:100CC00086E00E945602019719F4772009F4A8C023
:100CD00087E00E945602019719F4662009F40DC1BD
:100CE00088E00E945602019719F4552009F472C158
:100CF00089E00E945602019719F4442009F4D7C1F3
:100D000081E10E9456028130910521F490934A01BD
:100D1000809349018091490190914A01019709F41A
:100D2000B7CF109252011092510160E082E00E9410
:100D30007F0260E083E00E947F0260E084E00E9426
:100D40007F0260E085E00E947F02109250011092C5
:100D50004F010E94EB026B017C0158EE452E53E0DF
:100D6000552E612C712C0E94EB02DC01CB018C19F9
:100D70009D09AE09BF09883E9340A105B10558F011
:100D800021E0421A51086108710888EEC80E83E01C
:100D9000D81EE11CF11C411451046104710419F7BF
:100DA000D090530161E08D2D0E947F028FE00E9460
:100DB00056028130910529F49093500180934F01A0
:100DC0000EC080E10E9456028C01019741F460E060
:100DD0008D2D0E947F02109352010093510160E01B
:100DE00082E00E947F0260E083E00E947F0260E078
:100DF00084E00E947F0260E085E00E947F02EDE5D2
:100E0000F1E0A3E5B1E011921192119211921D92BD
:100E10001D9281E0E537F807B1F70E94230231CF38
:100E200061E082E00E947F02009151011091520125
:100E3000F801EE0FFF1FED5AFE4FD182C082609184
:100E40004B0170914C0180914D0190914E010E9497
:100E500010030E945B0BAB01BC01000F111F000FC0
:100E6000111FF801E35AFE4F40835183628373835D
:100E700022E0CE0101960E944204E0915101F091DE
:100E80005201EE0FFF1FED5AFE4F8081918126E047
:100E9000289FB001299F700D1124625F7D4FCE0104
:100EA0000D960E940E04BE01635F7F4FCE01079630
:100EB0000E940E04CE0107960E949703BE016F5F49
:100EC0007F4F0E94BB030E943501CE0107960E940E
:100ED0003D04CE010D960E943D04CE0101960E9474
:100EE0003D048091510190915201019690935201DD
:100EF0008093510177247394EBCE61E083E00E94EC
:100F00007F020091510110915201F801EE0FFF1F75
:100F1000ED5AFE4F9182808260914B0170914C019D
:100F200080914D0190914E010E9410030E945B0B35
:100F3000AB01BC01000F111F000F111FF801E35A94
:100F4000FE4F408351836283738322E0CE0101967A
:100F50000E944204E0915101F0915201EE0FFF1FF7
:100F6000ED5AFE4F8081918126E0289FB001299F94
:100F7000700D1124625F7D4FCE010D960E940E040C
:100F8000BE01635F7F4FCE0107960E940E04CE0123
:100F900007960E949703BE016F5F7F4F0E94BB03BD
:100FA0000E943501CE0107960E943D04CE010D96A8
:100FB0000E943D04CE0101960E943D0480915101A2
:100FC00090915201019690935201809351016624B1
:100FD000639486CE61E084E00E947F02009151011B
:100FE00010915201F801EE0FFF1FED5AFE4FB18232
:100FF000A08260914B0170914C0180914D019091C4
:101000004E010E9410030E945B0BAB01BC01000F5C
:10101000111F000F111FF801E35AFE4F4083518347
:101020006283738322E0CE0101960E944204E09124
:101030005101F0915201EE0FFF1FED5AFE4F8081DA
:10104000918126E0289FB001299F700D1124625FD5
:101050007D4FCE010D960E940E04BE01635F7F4F4F
:10106000CE0107960E940E04CE0107960E949703B8
:10107000BE016F5F7F4F0E94BB030E943501CE010E
:1010800007960E943D04CE010D960E943D04CE01BC
:1010900001960E943D048091510190915201019668
:1010A00090935201809351015524539421CE61E0D5
:1010B00085E00E947F020091510110915201F801D8
:1010C000EE0FFF1FED5AFE4F3182208260914B01DF
:1010D00070914C0180914D0190914E010E9410033E
:1010E0000E945B0BAB01BC01000F111F000F111F11
:1010F000F801E35AFE4F408351836283738322E0F9
:10110000CE0101960E944204E0915101F0915201FA
:10111000EE0FFF1FED5AFE4F8081918126E0289F40
:10112000B001299F700D1124625F7D4FCE010D9695
:101130000E940E04BE01635F7F4FCE0107960E949E
:101140000E04CE0107960E949703BE016F5F7F4F8A
:101150000E94BB030E943501CE0107960E943D0408
:10116000CE010D960E943D04CE0101960E943D04E1
:101170008091510190915201019690935201809378
:10118000510144244394BCCDCF93DF93C2E3D2E01A
:101190002697CE010E943D0482E0CE30D807C1F7E9
:1011A000DF91CF910895EF920F931F93CF93DF9329
:1011B000E80147FD02C034E001C034E1E42F440FF0
:1011C000FF0BF7FF03C0F195E195F109E32E022F24
:1011D0002E2FAE010E94F308CE01DF91CF911F9117
:1011E0000F91EF9008954F925F926F927F929F922E
:1011F000AF92BF92CF92DF92EF92FF920F931F9325
:10120000CF93DF93CDB7DEB729970FB6F894DEBF43
:101210000FBECDBF6A01122FB02E2BE3201720F096
:10122000FF24F394F00E02C0BCE3FB2E0F2D27E049
:10123000AE014F5F5F4F0E94810AAC018981982FF8
:101240009970913031F0E1FC06C0E0FE06C090E2FA
:1012500005C09DE203C09BE201C090E0EE2DE0716D
:1012600083FF3CC0911102C083E001C084E081177C
:1012700018F4212F281B01C020E0E1110BC0F6015A
:10128000822F30E2882319F031938150FBCFC20EB8
:10129000D11C20E0992329F0D6019C93F6013196C8
:1012A0006F01C6010396E2FE0AC03EE4D6013C93FC
:1012B00041E411964C93119712963C9306C03EE67A
:1012C000F601308341E641833283FC01322F40E254
:1012D000332309F442C041933150FACF82FF44C016
:1012E000911102C083E001C084E0811718F4212F1E
:1012F000281B01C020E0E1110BC0F601822F30E273
:10130000882319F031938150FBCFC20ED11C20E00D
:10131000992329F0D6019C93F60131966F01C601FD
:101320000396E2FE0BC039E4D6013C933EE41196ED
:101330003C93119736E412963C9307C039E6F601C8
:1013400030833EE6318336E63283FC01322F40E2C1
:10135000332319F041933150FBCFFC01E20FF11D13
:1013600010828EEF9FEFB7C0F1E0911101C0F0E065
:101370006F2F70E01416150624F49A012F5F3F4F6B
:1013800002C021E030E0260F371FBB2029F06B2D73
:1013900070E06F5F7F4F02C060E070E0260F371F84
:1013A000612F70E0261737071CF4121B212F01C094
:1013B00020E03E2D387159F4D601322F60E23323FC
:1013C00019F06D933150FBCFC20ED11C20E0FF23EA
:1013D00031F0D6019C93B6016F5F7F4F6B01E11135
:1013E0000BC0F601922F30E3992319F031939150FD
:1013F000FBCFC20ED11C20E09F2D940F3A81782F95
:101400007071A72E84FF03C0313309F4915019166F
:1014100024F4993018F098E001C091E0E42F852F72
:1014200057FF02C0E0E080E06E2F782FE0E0F0E0B0
:10143000AEE29A2E3A01691A71082A01461A570A31
:101440000B2D10E01195019511096F3F8FEF780773
:1014500029F4D6019C92C60101966C0146175707E4
:1014600084F0661677066CF47F01E40CF51CA1E0AD
:10147000B0E0AC0FBD1FEA0EFB1ED7011196BC9069
:1014800002C090E3B92E615071093196C6010196F0
:101490007C016017710724F0D601BC926C01D5CF96
:1014A0006417750741F4363320F4353321F4A11065
:1014B00002C081E3B82EF601B082F701822F90E2DC
:1014C000882319F091938150FBCFF701E20FF11DB2
:1014D000108280E090E029960FB6F894DEBF0FBE30
:1014E000CDBFDF91CF911F910F91FF90EF90DF90D3
:1014F000CF90BF90AF909F907F906F905F904F90F4
:101500000895283008F027E03327DA01990F311DBC
:1015100087FD916000966105710539F432602E5F98
:101520003D9330E32A95E1F708959F3F30F08038EE
:101530007105610509F03C5F3C5F3D93913008F017
:101540008068911DDF93CF931F930F93FF92EF92CB
:10155000192F987F9695E92F96959695E90FFF2775
:10156000EE53FF4F99273327EE24FF24A701E7010D
:1015700005900894079428F4360FE71EF81E491FBB
:10158000511D660F771F881F991F0694A1F70590BC
:10159000079428F4E70EF81E491F561FC11D770F48
:1015A000881F991F661F0694A1F70590079428F4D9
:1015B000F80E491F561FC71FD11D880F991F661FA0
:1015C000771F0694A1F70590079420F4490F561F42
:1015D000C71FD81F990F661F771F881F0694A9F78A
:1015E00084911095177041F0D695C79557954795FA
:1015F000F794E7941A95C1F7E8E6F0E0689415903F
:10160000159135916591959105907FE27395E1185B
:10161000F10A430B560BC90BD009C0F7E10CF11EC0
:10162000431F561FC91FD01D7EF4703311F48A95D5
:10163000E6CFE894015030F0080F0AF400270217B3
:1016400008F4202F2395022F7A3328F079E37D9335
:101650002A95E9F710C07D932A9589F60694979507
:101660006795379517951794E118F10A430B560BB8
:10167000C90BD00998F023957E9173957A3308F0C1
:1016800070E37C932013B8F77E9170617D9330F006
:10169000839571E37D9370E32A95E1F71124EF9030
:1016A000FF900F911F91CF91DF91992787FD909522
:1016B0000895E89409C097FB3EF490958095709545
:1016C00061957F4F8F4F9F4F9923A9F0F92F96E98E
:1016D000BB279395F695879577956795B795F11103
:1016E000F8CFFAF4BB0F11F460FF1BC06F5F7F4FA0
:1016F0008F4F9F4F16C0882311F096E911C07723B2
:1017000021F09EE8872F762F05C0662371F096E8BA
:10171000862F70E060E02AF09A95660F771F881F89
:10172000DAF7880F9695879597F9089597F99F6747
:1017300080E870E060E008959FEF80EC0895002459
:101740000A941616170618060906089500240A9426
:1017500012161306140605060895092E0394000CAC
:1017600011F4882352F0BB0F40F4BF2B11F460FF3B
:1017700004C06F5F7F4F8F4F9F4F089557FD905864
:10178000440F551F59F05F3F71F04795880F97FB45
:10179000991F61F09F3F79F08795089512161306FF
:1017A0001406551FF2CF4695F1DF08C0161617062E
:1017B0001806991FF1CF8695710561050894089563
:1017C000E894BB2766277727CB0197F908952F92D6
:1017D0003F924F925F926F927F928F929F92AF92C1
:1017E000BF92CF92DF92EF92FF920F931F93CF930E
:1017F000DF93CDB7DEB7CA1BDB0B0FB6F894DEBFA5
:101800000FBECDBF09942A88398848885F846E84CA
:101810007D848C849B84AA84B984C884DF80EE8014
:10182000FD800C811B81AA81B981CE0FD11D0FB61D
:10183000F894DEBF0FBECDBFED0108955058BB2711
:10184000AA270E94360C0C94AD0B0E949F0B38F017
:101850000E94A60B20F039F49F3F19F426F40C9453
:101860009C0B0EF4E095E7FB0C94960BE92F0E947D
:10187000BE0B58F3BA17620773078407950720F069
:1018800079F4A6F50C94E00B0EF4E0950B2EBA2F2C
:10189000A02D0B01B90190010C01CA01A001112476
:1018A000FF27591B99F0593F50F4503E68F11A1622
:1018B000F040A22F232F342F4427585FF3CF4695B3
:1018C00037952795A795F0405395C9F77EF41F16D5
:1018D000BA0B620B730B840BBAF09150A1F0FF0F9F
:1018E000BB1F661F771F881FC2F70EC0BA0F621F8B
:1018F000731F841F48F4879577956795B795F7957B
:101900009E3F08F0B0CF9395880F08F09927EE0F0F
:101910009795879508950E94920C6894B1110C9444
:10192000E10B08950E94C60B88F09F5798F0B92FDD
:101930009927B751B0F0E1F0660F771F881F991F04
:101940001AF0BA95C9F714C0B13091F00E94E00BBB
:10195000B1E008950C94E00B672F782F8827B85FCB
:1019600039F0B93FCCF3869577956795B395D9F75C
:101970003EF490958095709561957F4F8F4F9F4F66
:101980000895A1E21A2EAA1BBB1BFD010DC0AA1FC0
:10199000BB1FEE1FFF1FA217B307E407F50720F0D8
:1019A000A21BB30BE40BF50B661F771F881F991F53
:1019B0001A9469F760957095809590959B01AC019C
:1019C000BD01CF010895052E97FB1EF400940E94DF
:1019D000FA0C57FD07D00E94C10C07FC03D04EF44F
:1019E0000C94FA0C50954095309521953F4F4F4FF0
:1019F0005F4F089590958095709561957F4F8F4FBB
:101A00009F4F0895EE0FFF1F0590F491E02D09946C
:101A1000CF93DF938230910510F482E090E0E09163
:101A20003402F091350220E030E0C0E0D0E03097A1
:101A300011F14081518148175907C0F048175907E3
:101A400061F482819381209719F09B838A832BC054
:101A5000909335028093340226C02115310519F088
:101A60004217530718F49A01BE01DF01EF0102800B
:101A7000F381E02DDCCF2115310509F1281B390B4D
:101A80002430310590F412968D919C911397611535
:101A9000710521F0FB019383828304C0909335028A
:101AA00080933402FD01329644C0FD01E20FF31F22
:101AB00081939193225031092D933C933AC0209108
:101AC000320230913302232B41F4209102013091F4
:101AD00003013093330220933202209100013091B0
:101AE00001012115310541F42DB73EB740910401A4
:101AF00050910501241B350BE0913202F091330225
:101B0000E217F307A0F42E1B3F0B2817390778F0D4
:101B1000AC014E5F5F4F2417350748F04E0F5F1F33
:101B200050933302409332028193919302C0E0E0DC
:101B3000F0E0CF01DF91CF9108950F931F93CF93E2
:101B4000DF93009709F48CC0FC0132971382128254
:101B500000913402109135020115110581F42081A4
:101B60003181820F931F2091320230913302281766
:101B7000390779F5F0933302E093320271C0D8014E
:101B800040E050E0AE17BF0750F412962D913C9103
:101B90001397AD012115310509F1D901F3CF9D014D
:101BA000DA013383228360817181860F971F821748
:101BB000930769F4EC0128813981260F371F2E5FC6
:101BC0003F4F318320838A819B8193838283452B7E
:101BD00029F4F0933502E093340242C01396FC934B
:101BE000EE931297ED01499159919E01240F351FF3
:101BF000E217F30771F480819181840F951F02969B
:101C000011969C938E938281938113969C938E93CD
:101C10001297E0E0F0E0D80112968D919C91139715
:101C2000009719F0F8018C01F6CF8D919C919801E5
:101C30002E5F3F4F820F931F20913202309133026B
:101C40002817390769F4309729F410923502109259
:101C5000340202C0138212821093330200933202C4
:101C6000DF91CF911F910F910895A0E0B0E0EBE3D9
:101C7000FEE00C94EB0BEC01009721F4CB010E94E9
:101C8000080DB8C0FC01E60FF71F9C012250310976
:101C9000E217F30708F4ACC0D9010D911C9111971C
:101CA00006171707B0F00530110508F49FC0C801EA
:101CB00004978617970708F499C002501109061B6C
:101CC000170B019311936D937C93CF010E949D0D8F
:101CD0008DC05B01A01AB10A4C01800E911EA0912B
:101CE0003402B091350240E050E0E12CF12C109725
:101CF00009F44AC0A815B905D1F56D907C901197EB
:101D0000630182E0C80ED11CCA14DB0480F1A30178
:101D10004A195B096A0182E0C80ED11C1296BC9078
:101D200012971396AC91B5E0CB16D10440F0B28275
:101D3000A38351834083D9016D937C930AC00E5FC6
:101D40001F4FC301800F911FF90191838083EB2DF9
:101D5000FA2FE114F10431F0D7011396FC93EE93BE
:101D6000129744C0F0933502E09334023FC08D9146
:101D70009C9111974817590708F4AC017D01129600
:101D80000D90BC91A02DB3CF80913202909133027F
:101D900088159905E1F446175707C8F480910001AA
:101DA00090910101009741F48DB79EB740910401D5
:101DB00050910501841B950BE817F907C8F4F093BF
:101DC0003302E0933202F901718360830FC0CB01CB
:101DD0000E94080D7C01009759F0A801BE010E94E5
:101DE000040FCE010E949D0DC70104C0CE0102C0A8
:101DF00080E090E0CDB7DEB7EEE00C94070C81E018
:101E000090E0F8940C94140FFB01DC0102C00190E7
:101E10000D9241505040D8F70895FB01DC0101902C
:101E20000D920020E1F7089510E0CFEDD0E004C05E
:101E3000FE010E94020D2196C03ED107C9F7F89419
:021E4000FFCFD2
:101E420000003602800000000000BA010A015201BF
:101E520001028301610175010D0A002020004E4438
:101E62000052454400424C554500475245454E00FC
:081E72004F52414E47450000AC
:107E0000112484B714BE81FFF0D085E080938100F7
:107E100082E08093C00088E18093C10086E0809377
:107E2000C20080E18093C4008EE0C9D0259A86E02C
:107E300020E33CEF91E0309385002093840096BBD3
:107E4000B09BFECF1D9AA8958150A9F7CC24DD24C4
:107E500088248394B5E0AB2EA1E19A2EF3E0BF2EE7
:107E6000A2D0813461F49FD0082FAFD0023811F036
:107E7000013811F484E001C083E08DD089C08234E0
:107E800011F484E103C0853419F485E0A6D080C0E4
:107E9000853579F488D0E82EFF2485D0082F10E0AE
:107EA000102F00270E291F29000F111F8ED06801E7
:107EB0006FC0863521F484E090D080E0DECF843638
:107EC00009F040C070D06FD0082F6DD080E0C81688
:107ED00080E7D80618F4F601B7BEE895C0E0D1E017
:107EE00062D089930C17E1F7F0E0CF16F0E7DF06D8
:107EF00018F0F601B7BEE89568D007B600FCFDCFD4
:107F0000A601A0E0B1E02C9130E011968C91119780
:107F100090E0982F8827822B932B1296FA010C0160
:107F200087BEE89511244E5F5F4FF1E0A038BF0790
:107F300051F7F601A7BEE89507B600FCFDCF97BE46
:107F4000E89526C08437B1F42ED02DD0F82E2BD052
:107F50003CD0F601EF2C8F010F5F1F4F84911BD097
:107F6000EA94F801C1F70894C11CD11CFA94CF0C13
:107F7000D11C0EC0853739F428D08EE10CD085E9AC
:107F80000AD08FE07ACF813511F488E018D01DD067
:107F900080E101D065CF982F8091C00085FFFCCF94
:107FA0009093C60008958091C00087FFFCCF809118
:107FB000C00084FD01C0A8958091C6000895E0E648
:107FC000F0E098E1908380830895EDDF803219F02E
:107FD00088E0F5DFFFCF84E1DECF1F93182FE3DFCA
:107FE0001150E9F7F2DF1F91089580E0E8DFEE27F6
:047FF000FF270994CA
:027FFE00040479
:0400000300007E007B
:00000001FF
