:100000000C94E0000C9408010C9408010C94080175
:100010000C9408010C9408010C9408010C9408013C
:100020000C9408010C9408010C9408010C9408012C
:100030000C9408010C9408010C9408010C9408011C
:100040000C9486050C9408010C9454050C942E0510
:100050000C9408010C9408010C9408010C940801FC
:100060000C9408010C94080100407A10F35A00A087
:10007000724E18090010A5D4E80000E87648170071
:1000800000E40B54020000CA9A3B000000E1F505B1
:10009000000080969800000040420F000000A086FB
:1000A00001000000102700000000E803000000002D
:1000B0006400000000000A000000000001000000D1
:1000C00000002C76D888DC674F0823DFC1DFAE59EB
:1000D000E1B1B796E5E3E453C63AE651997696E87E
:1000E000E6C28426EB898C9B62ED407C6FFCEFBC02
:1000F0009C9F40F2BAA56FA5F490055A2AF75C932D
:100100006B6CF9676DC11BFCE0E40D47FEF520E662
:10011000B500D0ED902E0300943577050080841E45
:10012000080000204E0A000000C80C333333330FA0
:10013000986E12831141EF8D2114893BE65516CF3D
:10014000FEE6DB18D1844B381BF77C1D901DA4BB49
:10015000E424203284725E228100C9F124ECA1E5FE
:100160003D2700000000240027002A0000000000B6
:10017000250028002B000000000023002600290095
:10018000040404040404040402020202020203033D
:100190000303030301020408102040800102040845
:1001A00010200102040810200000000800020100D5
:1001B000000304070000000000000000D005250A2D
:1001C00011241FBECFEFD8E0DEBFCDBF22E0A4EEEA
:1001D000B1E001C01D92A23EB207E1F711E0A0E03C
:1001E000B1E0E4E0F1E202C005900D92A43EB10757
:1001F000D9F710E0CFEDD0E004C02197FE010E94B6
:10020000630ECE3DD107C9F70E9420060C947510ED
:100210000C940000CF92DF92EF92FF920F931F9306
:10022000CF93DF936C017A018B01C0E0D0E0CE1553
:10023000DF0589F0D8016D918D01D601ED91FC911A
:100240000190F081E02DC6010995892B11F47E0102
:1002500002C02196ECCFC701DF91CF911F910F9182
:10026000FF90EF90DF90CF900895089580E090E0A8
:100270000895FC01538D448D252F30E0842F90E0AC
:10028000821B930B541710F0CF9608950197089591
:10029000FC01918D828D981761F0828DDF01A80F8E
:1002A000B11D5D968C91928D9F5F9F73928F90E0B0
:1002B00008958FEF9FEF0895FC01918D828D98171F
:1002C00031F0828DE80FF11D858D90E008958FEF5C
:1002D0009FEF0895FC01918D228D892F90E0805C25
:1002E0009F4F821B91098F73992708958DE192E0AA
:1002F0000E946A0121E0892B09F420E0822F0895F1
:10030000FC01848DDF01A80FB11DA35ABF4F2C91B2
:10031000848D90E001968F739927848FA689B78981
:100320002C93A089B1898C9180648C93938D848D5A
:10033000981306C00288F389E02D80818F7D808329
:100340000895EF92FF920F931F93CF93DF93EC01E9
:1003500081E0888F9B8D8C8D981305C0E889F98981
:10036000808185FD24C0F62E0B8D10E00F5F1F4F9E
:100370000F731127E02E8C8DE8120CC00FB607FC0E
:10038000FACFE889F989808185FFF5CFCE010E94F7
:100390008001F1CF8B8DFE01E80FF11DE35AFF4F75
:1003A000F0820B8FEA89FB898081806207C0EE8929
:1003B000FF896083E889F98980818064808381E096
:1003C00090E0DF91CF911F910F91FF90EF900895F2
:1003D000CF93DF93EC01888D8823C9F0EA89FB89EC
:1003E000808185FD05C0A889B9898C9186FD0FC0E3
:1003F0000FB607FCF5CF808185FFF2CFA889B989B8
:100400008C9185FFEDCFCE010E948001E7CFDF9177
:10041000CF91089580E090E0892B29F00E94760129
:1004200081110C9400000895833081F028F481300C
:1004300099F08230A1F008958730A9F08830B9F0A2
:100440008430D1F4809180008F7D03C08091800042
:100450008F7780938000089584B58F7702C084B52C
:100460008F7D84BD08958091B0008F7703C0809107
:10047000B0008F7D8093B0000895CF93DF93282F35
:1004800030E0F901E855FE4F8491F901EC56FE4F3A
:10049000D491F901E058FE4FC491CC2391F0811121
:1004A0000E941402EC2FF0E0EE0FFF1FEA58FE4FFF
:1004B000A591B491EC91ED2381E090E021F480E0EE
:1004C00002C080E090E0DF91CF9108951F93CF9319
:1004D000DF93282F30E0F901E855FE4F8491F901B0
:1004E000EC56FE4FD491F901E058FE4FC491CC2355
:1004F000C9F0162F81110E941402EC2FF0E0EE0FCC
:10050000FF1FE459FE4FA591B4918FB7F8941111D4
:1005100005C09C91ED2FE095E92302C0EC91ED2BF5
:10052000EC938FBFDF91CF911F910895CF93DF930D
:1005300090E0FC01EC56FE4F2491FC01E058FE4F88
:100540008491882361F190E0880F991FFC01EE5996
:10055000FE4FC591D491FC01E459FE4FA591B49191
:10056000611109C09FB7F894888120958223888300
:10057000EC912E230BC0623061F49FB7F894388160
:10058000822F809583238883EC912E2B2C939FBF01
:1005900006C08FB7F894E8812E2B28838FBFDF9198
:1005A000CF9108953FB7F8948091ED019091EE01BD
:1005B000A091EF01B091F00126B5A89B05C02F3F97
:1005C00019F00196A11DB11D3FBFBA2FA92F982F79
:1005D0008827820F911DA11DB11DBC01CD0142E0F4
:1005E000660F771F881F991F4A95D1F708958F923C
:1005F0009F92AF92BF92CF92DF92EF92FF926B01E8
:100600007C010E94D2024B015C01C114D104E104BF
:10061000F104F1F00E94D202DC01CB0188199909A2
:10062000AA09BB09883E9340A105B10570F321E0FA
:10063000C21AD108E108F10888EE880E83E0981EFE
:10064000A11CB11CC114D104E104F10419F7DDCFE0
:10065000FF90EF90DF90CF90BF90AF909F908F90E2
:100660000895009769F0FC0101900020E9F73197A7
:10067000AF01481B590BBC018DE192E00C940A01BB
:1006800080E090E00895CF93DF930E943103EC0166
:1006900088E191E00E9431038C0F9D1FDF91CF9183
:1006A00008958F929F92AF92BF920F931F93CF9313
:1006B000DF93CDB7DEB7A1970FB6F894DEBF0FBEBC
:1006C000CDBF19A2423008F44AE08E010F5D1F4FE2
:1006D000842E912CA12CB12CA50194010E94220EF4
:1006E000E62FB901CA0101501109EA3014F4E05DA6
:1006F00001C0E95CD801EC93232B242B252B61F757
:10070000C8010E943103A1960FB6F894DEBF0FBE58
:10071000CDBFDF91CF911F910F91BF90AF909F9070
:100720008F900895CF93DF93FC01448155816081C0
:1007300071818DE192E00E940A01EC0188E191E073
:100740000E9431038C0F9D1FDF91CF9108958F92EE
:100750009F92AF92BF92CF92DF92EF92FF924B01A6
:100760005C018BE191E00E9443038FB7F894C09045
:10077000F101D090F201E090F301F090F4018FBF0D
:10078000C092E801D092E901E092EA01F092EB0117
:10079000C501B40128E13CEF4FEF5FEF0E94440E2A
:1007A00049015A01C701B60128EE33E040E050E0AC
:1007B0000E94220EC501B401620F731F841F951F92
:1007C0000E94BA0C20E030E040E05FE30E94800D20
:1007D0000E94EC0D6093E4017093E5018093E601C3
:1007E0009093E7014AE00E94510388E191E00E9462
:1007F00031036091E4017091E5018091E6019091EF
:10080000E701FF90EF90DF90CF90BF90AF909F9067
:100810008F9008950E9460100F931F93CF93DF93E2
:10082000EC0188819981009729F02A813B81261764
:10083000370788F48B016F5F7F4F0E94960F0097F8
:1008400061F0998388831B830A832C813D81232B4C
:1008500011F4FC01108281E001C080E0DF91CF91B2
:100860001F910F910895CF93DF93EC0188819981B7
:10087000009711F00E94FE0E198218821D821C82C0
:100880001B821A82DF91CF9108950F931F93CF930C
:10089000DF93EC010C811D810E5F1F4FB8010E9498
:1008A0000C04882369F0288139818C819D816CE258
:1008B00071E0820F931F0E946E101D830C8303C092
:1008C000CE010E943304CE01DF91CF911F910F9191
:1008D0000895EF92FF920F931F93CF93DF93EC0154
:1008E000FB0184819581E080F1800C811D81E11400
:1008F000F104B1F00097B9F0080F191FB801CE014B
:100900000E940C04882361F0288139818C819D81AB
:10091000B701820F931F0E946E101D830C8303C0CA
:10092000CE010E943304CE01DF91CF911F910F9130
:10093000FF90EF900895EF92FF920F931F93CF9344
:10094000DF93EC017B018A01BA010E940C04811142
:1009500004C0CE010E94330407C01D830C83B7017D
:10096000888199810E946E10CE01DF91CF911F91F5
:100970000F91FF90EF900895FB01DC0111961C92FE
:100980001E9213961C921E92129715961C921E92FE
:1009900014978617970749F0608171816115710579
:1009A00021F0448155810C949B040895FC0111822F
:1009B000108213821282158214826115710551F022
:1009C000FB0101900020E9F73197AF01461B570B5F
:1009D0000C949B040895FC01808191810C94FE0E7F
:1009E000EF92FF920F931F93CF93DF93CDB7DEB7B4
:1009F000A1970FB6F894DEBF0FBECDBF7C01CB012F
:100A0000BA01F701118210821382128215821482B8
:100A100042E0420F8E010F5F1F4F0E94340A009781
:100A200069F0FC0101900020E9F73197AF01481B04
:100A3000590BBC01C7010E949B0403C0C7010E945F
:100A40003304A1960FB6F894DEBF0FBECDBFDF9181
:100A5000CF911F910F91FF90EF9008951F920F92E9
:100A60000FB60F9211242F933F934F935F936F9381
:100A70007F938F939F93AF93BF93EF93FF938DE1FA
:100A800092E00E948001FF91EF91BF91AF919F9101
:100A90008F917F916F915F914F913F912F910F9027
:100AA0000FBE0F901F9018951F920F920FB60F92C6
:100AB00011242F938F939F93EF93FF93E0912D0237
:100AC000F0912E028081E0913302F091340282FD98
:100AD00012C09081809136028F5F8F732091370210
:100AE000821751F0E0913602F0E0E35EFD4F958F02
:100AF0008093360201C08081FF91EF919F918F9189
:100B00002F910F900FBE0F901F9018951F920F926C
:100B10000FB60F9211242F933F938F939F93AF9310
:100B2000BF938091F1019091F201A091F301B091F6
:100B3000F4013091EC0123E0230F2D3720F40196CE
:100B4000A11DB11D05C026E8230F0296A11DB11DF0
:100B50002093EC018093F1019093F201A093F301B3
:100B6000B093F4018091ED019091EE01A091EF011D
:100B7000B091F0010196A11DB11D8093ED019093FC
:100B8000EE01A093EF01B093F001BF91AF919F915F
:100B90008F913F912F910F900FBE0F901F9018953E
:100BA000EDE1F2E01382128288EE93E0A0E0B0E083
:100BB00084839583A683B7838AE091E091838083C1
:100BC00085EC90E09587848784EC90E09787868712
:100BD00080EC90E0918B808B81EC90E0938B828B0A
:100BE00082EC90E0958B848B86EC90E0978B868BE3
:100BF000118E128E138E148E6FE271E08AEB92E0EA
:100C00000E94D6046FE271E080EC92E00E94D6046C
:100C100062E371E086EC92E00E94D60466E371E044
:100C20008CEC92E00E94D6046BE371E082ED92E0DE
:100C30000E94D60461E471E088ED92E00C94D60441
:100C4000CF93DF93CDB7DEB762970FB6F894DEBFD0
:100C50000FBECDBF789484B5826084BD84B58160B9
:100C600084BD85B5826085BD85B5816085BD809177
:100C70006E00816080936E001092810080918100EF
:100C800082608093810080918100816080938100E7
:100C9000809180008160809380008091B1008460A9
:100CA0008093B1008091B00081608093B00080910A
:100CB0007A00846080937A0080917A0082608093C9
:100CC0007A0080917A00816080937A0080917A0026
:100CD000806880937A001092C100E0912D02F0911B
:100CE0002E0282E08083E0912902F0912A02108294
:100CF000E0912B02F0912C028FEC80831092350250
:100D0000E0913102F091320286E08083E0912F027F
:100D1000F0913002808180618083E0912F02F09118
:100D20003002808188608083E0912F02F091300250
:100D3000808180688083E0912F02F0913002808171
:100D40008F7D808388E491E00E94430361E082E02C
:100D50000E94960261E083E00E94960261E084E0D6
:100D60000E94960261E085E00E94960261E08AE0BE
:100D70000E94960260E086E00E94960260E087E0B2
:100D80000E94960260E088E00E94960260E089E09E
:100D90000E94960260E08EE00E94960260E08FE082
:100DA0000E94960260E080E10E94960260E081E18C
:100DB0000E94960264EF71E080E090E00E94F702EA
:100DC00061E082E00E94660261E083E00E946602C8
:100DD00061E084E00E94660261E085E00E946602B4
:100DE00060ED77E080E090E00E94F70260E082E052
:100DF0000E94660260E083E00E94660260E084E098
:100E00000E94660260E085E00E94660225E0222ED4
:100E1000312C34E0432E512C81E591E00E944303B4
:100E2000A12CB12CC12CD12CE12CF12C00E010E034
:100E300083E0882E912C92E0692E712C8EE00E9426
:100E40003D02019709F04AC288E691E00E944303FF
:100E50002FB7F8948091F1019091F201A091F301E4
:100E6000B091F4012FBF8093F7019093F801A09304
:100E7000F901B093FA0186E00E943D02019709F062
:100E800080C00115110509F07CC08AE791E00E943D
:100E9000430361E082E00E9466020091FD0110912F
:100EA000FE01F801EE0FFF1FE150FE4F71826082DC
:100EB0006091F7017091F8018091F9019091FA0128
:100EC0000E94A703000F111F000F111F075F1D4F86
:100ED0000E94BC0CF8016083718382839383E0914C
:100EE000FD01F091FE01EE0FFF1FEE0FFF1FE75F08
:100EF000FD4F408151816281738122E0CE010196D4
:100F00000E94F004E091FD01F091FE01EE0FFF1F41
:100F1000E150FE4F8081918126E0289FB001299FFA
:100F2000700D112466547D4FCE010D960E94BC04B5
:100F3000BE01635F7F4FCE0107960E94BC04CE01C5
:100F400007960E944504BE016F5F7F4F0E946904AF
:100F50000E949203CE0107960E94EB04CE010D96EB
:100F60000E94EB04CE0101960E94EB048091FD01EA
:100F70009091FE0101969093FE018093FD0101E0A6
:100F800010E087E00E943D02019709F084C0E1145F
:100F9000F10409F080C080E891E00E94430361E021
:100FA00083E00E946602E090FD01F090FE01F701EF
:100FB000EE0FFF1FE150FE4F918280826091F7019A
:100FC0007091F8018091F9019091FA010E94A703B4
:100FD0009701220F331F220F331FA901475F5D4F77
:100FE0007A010E94BC0CF701608371838283938332
:100FF000E091FD01F091FE01EE0FFF1FEE0FFF1FCC
:10100000E75FFD4F408151816281738122E0CE0113
:1010100001960E94F004E091FD01F091FE01EE0FB7
:10102000FF1FE150FE4F8081918126E0289FB00193
:10103000299F700D112466547D4FCE010D960E949C
:10104000BC04BE01635F7F4FCE0107960E94BC04C3
:10105000CE0107960E944504BE016F5F7F4F0E943C
:1010600069040E949203CE0107960E94EB04CE0110
:101070000D960E94EB04CE0101960E94EB04809134
:10108000FD019091FE0101969093FE018093FD0178
:10109000EE24E394F12C88E00E943D02019709F0D0
:1010A00084C0C114D10409F080C087E891E00E9497
:1010B000430361E084E00E946602C090FD01D0908D
:1010C000FE01F601EE0FFF1FE150FE4F51824082FC
:1010D0006091F7017091F8018091F9019091FA0106
:1010E0000E94A7039601220F331F220F331FA9016D
:1010F000475F5D4F6A010E94BC0CF60160837183FB
:1011000082839383E091FD01F091FE01EE0FFF1FBA
:10111000EE0FFF1FE75FFD4F4081518162817381B8
:1011200022E0CE0101960E94F004E091FD01F091D1
:10113000FE01EE0FFF1FE150FE4F8081918126E0FE
:10114000289FB001299F700D112466547D4FCE0158
:101150000D960E94BC04BE01635F7F4FCE010796CF
:101160000E94BC04CE0107960E944504BE016F5F39
:101170007F4F0E9469040E949203CE0107960E944D
:10118000EB04CE010D960E94EB04CE0101960E9465
:10119000EB048091FD019091FE0101969093FE0178
:1011A0008093FD01CC24C394D12C89E00E943D02A0
:1011B000019709F084C0A114B10409F080C08FE840
:1011C00091E00E94430361E085E00E946602A090E6
:1011D000FD01B090FE01F501EE0FFF1FE150FE4F43
:1011E000318220826091F7017091F8018091F901BC
:1011F0009091FA010E94A7039501220F331F220F3D
:10120000331FA901475F5D4F5A010E94BC0CF501D5
:101210006083718382839383E091FD01F091FE01ED
:10122000EE0FFF1FEE0FFF1FE75FFD4F4081518163
:101230006281738122E0CE0101960E94F004E09168
:10124000FD01F091FE01EE0FFF1FE150FE4F808186
:10125000918126E0289FB001299F700D11246654CA
:101260007D4FCE010D960E94BC04BE01635F7F4F8F
:10127000CE0107960E94BC04CE0107960E94450449
:10128000BE016F5F7F4F0E9469040E949203CE01EE
:1012900007960E94EB04CE010D960E94EB04CE014E
:1012A00001960E94EB048091FD019091FE01019650
:1012B0009093FE018093FD01AA24A394B12C8FE0AA
:1012C0000E943D028130910549F49093F60180938C
:1012D000F50188E991E00E94430307C08091F50180
:1012E0009091F601892B09F4A9CD86EA91E00E943C
:1012F00043031092FE011092FD0160E082E00E9423
:10130000660260E083E00E94660260E084E00E9482
:10131000660260E085E00E9466021092FC01109275
:10132000FB0168EE73E080E090E00E94F702E0913C
:10133000FD01F091FE01EE0FFF1FE150FE4FC08056
:10134000D18061E08C2D0E9466020D2C000CEE080D
:10135000FF08F7FE14C0E0911D02F0911E020190FB
:10136000F081E02D6DE28DE192E009956627772707
:10137000CB016C197D098E099F094AE003C04AE040
:10138000C701B6010E94510388E191E00E94310338
:1013900080E10E943D028C01019749F48EEB91E0BF
:1013A0000E9443031093FC010093FB0123C081E1E1
:1013B0000E943D020197B9F486EC91E00E9443033C
:1013C0000091FD011091FE01F801EE0FFF1FE150A9
:1013D000FE4F60E080810E9466020F5F1F4F1093F6
:1013E000FE010093FD018091FB019091FC01892B8E
:1013F00009F493CF60E082E00E94660260E083E03F
:101400000E94660260E084E00E94660260E085E07F
:101410000E94660282ED91E00E94430368EE73E051
:1014200080E090E00E94F702E9E0F2E0AFEFB1E087
:1014300011921192119211921D921D9242E0E1328D
:10144000F407B1F70E940A02E7CCCF93DF93CEED09
:10145000D2E02697CE010E94EB0482E0CA3BD80777
:10146000C1F7DF91CF910895EF920F931F93CF9320
:10147000DF93E80147FD02C034E001C034E1E42F0E
:10148000440FFF0BF7FF03C0F195E195F109E32E3F
:10149000022F2E2FAE010E94540ACE01DF91CF9170
:1014A0001F910F91EF9008954F925F926F927F92EC
:1014B0009F92AF92BF92CF92DF92EF92FF920F93E3
:1014C0001F93CF93DF93CDB7DEB729970FB6F8946C
:1014D000DEBF0FBECDBF6A01122FB02E2BE3201747
:1014E00020F0FF24F394F00E02C0BCE3FB2E0F2D7E
:1014F00027E0AE014F5F5F4F0E94E20BAC01898194
:10150000982F9970913031F0E1FC06C0E0FE06C0E2
:1015100090E205C09DE203C09BE201C090E0EE2D89
:10152000E07183FF3CC0911102C083E001C084E000
:10153000811718F4212F281B01C020E0E1110BC0F6
:10154000F601822F30E2882319F031938150FBCFCE
:10155000C20ED11C20E0992329F0D6019C93F601FC
:1015600031966F01C6010396E2FE0AC03EE4D60141
:101570003C9341E411964C93119712963C9306C00C
:101580003EE6F601308341E641833283FC01322F8F
:1015900040E2332309F442C041933150FACF82FF35
:1015A00044C0911102C083E001C084E0811718F4A7
:1015B000212F281B01C020E0E1110BC0F601822F72
:1015C00030E2882319F031938150FBCFC20ED11C39
:1015D00020E0992329F0D6019C93F60131966F0102
:1015E000C6010396E2FE0BC039E4D6013C933EE40B
:1015F00011963C93119736E412963C9307C039E656
:10160000F60130833EE6318336E63283FC01322F29
:1016100040E2332319F041933150FBCFFC01E20F3C
:10162000F11D10828EEF9FEFB7C0F1E0911101C064
:10163000F0E06F2F70E01416150624F49A012F5F66
:101640003F4F02C021E030E0260F371FBB2029F0BA
:101650006B2D70E06F5F7F4F02C060E070E0260F7F
:10166000371F612F70E0261737071CF4121B212F3C
:1016700001C020E03E2D387159F4D601322F60E2CE
:10168000332319F06D933150FBCFC20ED11C20E0F3
:10169000FF2331F0D6019C93B6016F5F7F4F6B0142
:1016A000E1110BC0F601922F30E3992319F0319329
:1016B0009150FBCFC20ED11C20E09F2D940F3A8198
:1016C000782F7071A72E84FF03C0313309F4915035
:1016D000191624F4993018F098E001C091E0E42F35
:1016E000852F57FF02C0E0E080E06E2F782FE0E00A
:1016F000F0E0AEE29A2E3A01691A71082A01461A00
:10170000570A0B2D10E01195019511096F3F8FEFCE
:10171000780729F4D6019C92C60101966C01461700
:10172000570784F0661677066CF47F01E40CF51C0D
:10173000A1E0B0E0AC0FBD1FEA0EFB1ED701119671
:10174000BC9002C090E3B92E615071093196C60178
:1017500001967C016017710724F0D601BC926C01E0
:10176000D5CF6417750741F4363320F4353321F4AF
:10177000A11002C081E3B82EF601B082F701822FDA
:1017800090E2882319F091938150FBCFF701E20F8B
:10179000F11D108280E090E029960FB6F894DEBF2C
:1017A0000FBECDBFDF91CF911F910F91FF90EF90B2
:1017B000DF90CF90BF90AF909F907F906F905F90A1
:1017C0004F900895283008F027E03327DA01990F69
:1017D000311D87FD916000966105710539F4326015
:1017E0002E5F3D9330E32A95E1F708959F3F30F057
:1017F00080387105610509F03C5F3C5F3D93913095
:1018000008F08068911DDF93CF931F930F93FF9291
:10181000EF92192F987F9695E92F96959695E90F57
:10182000FF27EE53FF4F99273327EE24FF24A7010C
:10183000E70105900894079428F4360FE71EF81E78
:10184000491F511D660F771F881F991F0694A1F726
:101850000590079428F4E70EF81E491F561FC11D76
:10186000770F881F991F661F0694A1F705900794AC
:1018700028F4F80E491F561FC71FD11D880F991F46
:10188000661F771F0694A1F70590079420F4490F6F
:10189000561FC71FD81F990F661F771F881F0694F2
:1018A000A9F784911095177041F0D695C795579573
:1018B0004795F794E7941A95C1F7E8E6F0E0689445
:1018C0001590159135916591959105907FE27395ED
:1018D000E118F10A430B560BC90BD009C0F7E10C14
:1018E000F11E431F561FC91FD01D7EF4703311F423
:1018F0008A95E6CFE894015030F0080F0AF40027EB
:10190000021708F4202F2395022F7A3328F079E369
:101910007D932A95E9F710C07D932A9589F6069460
:1019200097956795379517951794E118F10A430B2A
:10193000560BC90BD00998F023957E9173957A3395
:1019400008F070E37C932013B8F77E9170617D936B
:1019500030F0839571E37D9370E32A95E1F71124CC
:10196000EF90FF900F911F91CF91DF91992787FD05
:1019700090950895E89409C097FB3EF49095809562
:10198000709561957F4F8F4F9F4F9923A9F0F92F45
:1019900096E9BB279395F695879577956795B795C3
:1019A000F111F8CFFAF4BB0F11F460FF1BC06F5FA9
:1019B0007F4F8F4F9F4F16C0882311F096E911C0BB
:1019C000772321F09EE8872F762F05C0662371F0DC
:1019D00096E8862F70E060E02AF09A95660F771FF0
:1019E000881FDAF7880F9695879597F9089597F9E4
:1019F0009F6780E870E060E008959FEF80EC0895B5
:101A000000240A94161617061806090608950024DD
:101A10000A9412161306140605060895092E039457
:101A2000000C11F4882352F0BB0F40F4BF2B11F4CB
:101A300060FF04C06F5F7F4F8F4F9F4F089557FD2A
:101A40009058440F551F59F05F3F71F04795880F2C
:101A500097FB991F61F09F3F79F0879508951216C3
:101A600013061406551FF2CF4695F1DF08C016166F
:101A700017061806991FF1CF869571056105089420
:101A80000895E894BB2766277727CB0197F9089537
:101A90002F923F924F925F926F927F928F929F927E
:101AA000AF92BF92CF92DF92EF92FF920F931F936C
:101AB000CF93DF93CDB7DEB7CA1BDB0B0FB6F8941D
:101AC000DEBF0FBECDBF09942A88398848885F845D
:101AD0006E847D848C849B84AA84B984C884DF80CE
:101AE000EE80FD800C811B81AA81B981CE0FD11DB2
:101AF0000FB6F894DEBF0FBECDBFED01089550586C
:101B0000BB27AA270E94970D0C940E0D0E94000D72
:101B100038F00E94070D20F039F49F3F19F426F4A5
:101B20000C94FD0C0EF4E095E7FB0C94F70CE92FF8
:101B30000E941F0D58F3BA176207730784079507B1
:101B400020F079F4A6F50C94410D0EF4E0950B2EDF
:101B5000BA2FA02D0B01B90190010C01CA01A001FF
:101B60001124FF27591B99F0593F50F4503E68F15A
:101B70001A16F040A22F232F342F4427585FF3CF9B
:101B8000469537952795A795F0405395C9F77EF46C
:101B90001F16BA0B620B730B840BBAF09150A1F0B5
:101BA000FF0FBB1F661F771F881FC2F70EC0BA0F3B
:101BB000621F731F841F48F4879577956795B795C3
:101BC000F7959E3F08F0B0CF9395880F08F09927BE
:101BD000EE0F9795879508950E94F30D6894B111C3
:101BE0000C94420D08950E94270D88F09F5798F09D
:101BF000B92F9927B751B0F0E1F0660F771F881F12
:101C0000991F1AF0BA95C9F714C0B13091F00E942B
:101C1000410DB1E008950C94410D672F782F88276E
:101C2000B85F39F0B93FCCF3869577956795B39552
:101C3000D9F73EF490958095709561957F4F8F4FC1
:101C40009F4F0895A1E21A2EAA1BBB1BFD010DC0D8
:101C5000AA1FBB1FEE1FFF1FA217B307E407F5075C
:101C600020F0A21BB30BE40BF50B661F771F881F38
:101C7000991F1A9469F760957095809590959B01CE
:101C8000AC01BD01CF010895052E97FB1EF4009411
:101C90000E945B0E57FD07D00E94220E07FC03D066
:101CA0004EF40C945B0E50954095309521953F4F26
:101CB0004F4F5F4F089590958095709561957F4F38
:101CC0008F4F9F4F0895EE0FFF1F0590F491E02D69
:101CD0000994CF93DF938230910510F482E090E075
:101CE000E091E002F091E10220E030E0C0E0D0E0DD
:101CF000309711F14081518148175907C0F04817BA
:101D0000590761F482819381209719F09B838A831C
:101D10002BC09093E1028093E00226C0211531058B
:101D200019F04217530718F49A01BE01DF01EF01C1
:101D30000280F381E02DDCCF2115310509F1281B4C
:101D4000390B2430310590F412968D919C911397A4
:101D50006115710521F0FB019383828304C0909388
:101D6000E1028093E002FD01329644C0FD01E20FE2
:101D7000F31F81939193225031092D933C933AC0E4
:101D80002091DE023091DF02232B41F420910201E9
:101D9000309103013093DF022093DE022091000195
:101DA000309101012115310541F42DB73EB7409125
:101DB000040150910501241B350BE091DE02F091E6
:101DC000DF02E217F307A0F42E1B3F0B2817390799
:101DD00078F0AC014E5F5F4F2417350748F04E0F87
:101DE0005F1F5093DF024093DE028193919302C004
:101DF000E0E0F0E0CF01DF91CF9108950F931F93C2
:101E0000CF93DF93009709F48CC0FC0132971382C3
:101E100012820091E0021091E1020115110581F496
:101E200020813181820F931F2091DE023091DF02E9
:101E30002817390779F5F093DF02E093DE0271C0CD
:101E4000D80140E050E0AE17BF0750F412962D9134
:101E50003C911397AD012115310509F1D901F3CF5B
:101E60009D01DA013383228360817181860F971F80
:101E70008217930769F4EC0128813981260F371FF7
:101E80002E5F3F4F318320838A819B81938382839E
:101E9000452B29F4F093E102E093E00242C013964F
:101EA000FC93EE931297ED01499159919E01240FF5
:101EB000351FE217F30771F480819181840F951F1C
:101EC000029611969C938E938281938113969C9394
:101ED0008E931297E0E0F0E0D80112968D919C91DC
:101EE0001397009719F0F8018C01F6CF8D919C9112
:101EF00098012E5F3F4F820F931F2091DE02309199
:101F0000DF022817390769F4309729F41092E102AB
:101F10001092E00202C0138212821093DF0200933B
:101F2000DE02DF91CF911F910F910895A0E0B0E004
:101F3000ECE9FFE00C944C0DEC01009721F4CB018F
:101F40000E94690EB8C0FC01E60FF71F9C012250E9
:101F50003109E217F30708F4ACC0D9010D911C91C7
:101F6000119706171707B0F00530110508F49FC048
:101F7000C80104978617970708F499C00250110901
:101F8000061B170B019311936D937C93CF010E9455
:101F9000FE0E8DC05B01A01AB10A4C01800E911E8D
:101FA000A091E002B091E10240E050E0E12CF12C80
:101FB000109709F44AC0A815B905D1F56D907C9029
:101FC0001197630182E0C80ED11CCA14DB0480F1B2
:101FD000A3014A195B096A0182E0C80ED11C12965E
:101FE000BC9012971396AC91B5E0CB16D10440F09B
:101FF000B282A38351834083D9016D937C930AC03D
:102000000E5F1F4FC301800F911FF90191838083E1
:10201000EB2DFA2FE114F10431F0D7011396FC9364
:10202000EE93129744C0F093E102E093E0023FC0C8
:102030008D919C9111974817590708F4AC017D01C7
:1020400012960D90BC91A02DB3CF8091DE0290919D
:10205000DF0288159905E1F446175707C8F4809107
:10206000000190910101009741F48DB79EB7409116
:10207000040150910501841B950BE817F907C8F47A
:10208000F093DF02E093DE02F901718360830FC0F9
:10209000CB010E94690E7C01009759F0A801BE0196
:1020A0000E946510CE010E94FE0EC70104C0CE0141
:1020B00002C080E090E0CDB7DEB7EEE00C94680D92
:1020C00081E090E0F8940C947510FB01DC0102C0F3
:1020D00001900D9241505040D8F70895FB01DC016A
:1020E00001900D920020E1F7089510E0CFEDD0E0CF
:1020F00004C0FE010E94630E2196C03ED107C9F7BD
:04210000F894FFCF81
:102104000000E202800000000000A1010A01390180
:10211400E8016A0148015C010D0A0046756E6374AA
:10212400696F6E2067657454696D65002020004EE8
:10213400440052454400424C554500475245454EE3
:10214400004F52414E474500416C6C2046696E6514
:10215400002046756E6374696F6E207374617274C7
:1021640047616D65282920002047616D65206861FD
:1021740073205374617274656400205245442000D6
:1021840020424C5545200020475245454E20002012
:102194004F72616E676520002047616D652053743E
:1021A4006F70706564002046756E6374696F6E208D
:1021B400636865636B416E73776572282900436FAA
:1021C40072726563740020496E636F727265637422
:1021D400200052657365747320696E2033203220A9
:0421E4003120300076
:00000001FF
